{
  "abi": [
    {
      "type": "function",
      "name": "UPGRADE_INTERFACE_VERSION",
      "inputs": [],
      "outputs": [
        {
          "name": "",
          "type": "string",
          "internalType": "string"
        }
      ],
      "stateMutability": "view"
    },
    {
      "type": "function",
      "name": "addCollateralTokens",
      "inputs": [
        {
          "name": "_tokens",
          "type": "address[]",
          "internalType": "address[]"
        },
        {
          "name": "_priceFeeds",
          "type": "bytes32[]",
          "internalType": "bytes32[]"
        }
      ],
      "outputs": [],
      "stateMutability": "nonpayable"
    },
    {
      "type": "function",
      "name": "addLoanableToken",
      "inputs": [
        {
          "name": "_token",
          "type": "address",
          "internalType": "address"
        },
        {
          "name": "_priceFeed",
          "type": "bytes32",
          "internalType": "bytes32"
        }
      ],
      "outputs": [],
      "stateMutability": "nonpayable"
    },
    {
      "type": "function",
      "name": "createLendingRequest",
      "inputs": [
        {
          "name": "_amount",
          "type": "uint256",
          "internalType": "uint256"
        },
        {
          "name": "_interest",
          "type": "uint8",
          "internalType": "uint8"
        },
        {
          "name": "_returnDate",
          "type": "uint256",
          "internalType": "uint256"
        },
        {
          "name": "_loanCurrency",
          "type": "address",
          "internalType": "address"
        }
      ],
      "outputs": [],
      "stateMutability": "nonpayable"
    },
    {
      "type": "function",
      "name": "depositCollateral",
      "inputs": [
        {
          "name": "_tokenCollateralAddress",
          "type": "address",
          "internalType": "address"
        },
        {
          "name": "_amountOfCollateral",
          "type": "uint256",
          "internalType": "uint256"
        }
      ],
      "outputs": [],
      "stateMutability": "nonpayable"
    },
    {
      "type": "function",
      "name": "getAccountCollateralValue",
      "inputs": [
        {
          "name": "_user",
          "type": "address",
          "internalType": "address"
        }
      ],
      "outputs": [
        {
          "name": "_totalCollateralValueInUsd",
          "type": "uint256",
          "internalType": "uint256"
        }
      ],
      "stateMutability": "view"
    },
    {
      "type": "function",
      "name": "getAllCollateralToken",
      "inputs": [],
      "outputs": [
        {
          "name": "",
          "type": "address[]",
          "internalType": "address[]"
        }
      ],
      "stateMutability": "view"
    },
    {
      "type": "function",
      "name": "getAllOfferForUser",
      "inputs": [
        {
          "name": "_borrower",
          "type": "address",
          "internalType": "address"
        },
        {
          "name": "_requestId",
          "type": "uint96",
          "internalType": "uint96"
        }
      ],
      "outputs": [
        {
          "name": "",
          "type": "tuple[]",
          "internalType": "struct Protocol.Offer[]",
          "components": [
            {
              "name": "offerId",
              "type": "uint256",
              "internalType": "uint256"
            },
            {
              "name": "tokenAddr",
              "type": "address",
              "internalType": "address"
            },
            {
              "name": "author",
              "type": "address",
              "internalType": "address"
            },
            {
              "name": "amount",
              "type": "uint256",
              "internalType": "uint256"
            },
            {
              "name": "interest",
              "type": "uint8",
              "internalType": "uint8"
            },
            {
              "name": "returnDate",
              "type": "uint256",
              "internalType": "uint256"
            },
            {
              "name": "offerStatus",
              "type": "uint8",
              "internalType": "enum Protocol.OfferStatus"
            }
          ]
        }
      ],
      "stateMutability": "view"
    },
    {
      "type": "function",
      "name": "getAllRequest",
      "inputs": [],
      "outputs": [
        {
          "name": "",
          "type": "tuple[]",
          "internalType": "struct Protocol.Request[]",
          "components": [
            {
              "name": "requestId",
              "type": "uint96",
              "internalType": "uint96"
            },
            {
              "name": "author",
              "type": "address",
              "internalType": "address"
            },
            {
              "name": "amount",
              "type": "uint256",
              "internalType": "uint256"
            },
            {
              "name": "interest",
              "type": "uint8",
              "internalType": "uint8"
            },
            {
              "name": "_totalRepayment",
              "type": "uint256",
              "internalType": "uint256"
            },
            {
              "name": "offer",
              "type": "tuple[]",
              "internalType": "struct Protocol.Offer[]",
              "components": [
                {
                  "name": "offerId",
                  "type": "uint256",
                  "internalType": "uint256"
                },
                {
                  "name": "tokenAddr",
                  "type": "address",
                  "internalType": "address"
                },
                {
                  "name": "author",
                  "type": "address",
                  "internalType": "address"
                },
                {
                  "name": "amount",
                  "type": "uint256",
                  "internalType": "uint256"
                },
                {
                  "name": "interest",
                  "type": "uint8",
                  "internalType": "uint8"
                },
                {
                  "name": "returnDate",
                  "type": "uint256",
                  "internalType": "uint256"
                },
                {
                  "name": "offerStatus",
                  "type": "uint8",
                  "internalType": "enum Protocol.OfferStatus"
                }
              ]
            },
            {
              "name": "returnDate",
              "type": "uint256",
              "internalType": "uint256"
            },
            {
              "name": "lender",
              "type": "address",
              "internalType": "address"
            },
            {
              "name": "loanRequestAddr",
              "type": "address",
              "internalType": "address"
            },
            {
              "name": "status",
              "type": "uint8",
              "internalType": "enum Protocol.Status"
            }
          ]
        }
      ],
      "stateMutability": "view"
    },
    {
      "type": "function",
      "name": "getLoanableAssets",
      "inputs": [],
      "outputs": [
        {
          "name": "_assets",
          "type": "address[]",
          "internalType": "address[]"
        }
      ],
      "stateMutability": "view"
    },
    {
      "type": "function",
      "name": "getRequestById",
      "inputs": [
        {
          "name": "_requestId",
          "type": "uint96",
          "internalType": "uint96"
        }
      ],
      "outputs": [
        {
          "name": "",
          "type": "tuple",
          "internalType": "struct Protocol.Request",
          "components": [
            {
              "name": "requestId",
              "type": "uint96",
              "internalType": "uint96"
            },
            {
              "name": "author",
              "type": "address",
              "internalType": "address"
            },
            {
              "name": "amount",
              "type": "uint256",
              "internalType": "uint256"
            },
            {
              "name": "interest",
              "type": "uint8",
              "internalType": "uint8"
            },
            {
              "name": "_totalRepayment",
              "type": "uint256",
              "internalType": "uint256"
            },
            {
              "name": "offer",
              "type": "tuple[]",
              "internalType": "struct Protocol.Offer[]",
              "components": [
                {
                  "name": "offerId",
                  "type": "uint256",
                  "internalType": "uint256"
                },
                {
                  "name": "tokenAddr",
                  "type": "address",
                  "internalType": "address"
                },
                {
                  "name": "author",
                  "type": "address",
                  "internalType": "address"
                },
                {
                  "name": "amount",
                  "type": "uint256",
                  "internalType": "uint256"
                },
                {
                  "name": "interest",
                  "type": "uint8",
                  "internalType": "uint8"
                },
                {
                  "name": "returnDate",
                  "type": "uint256",
                  "internalType": "uint256"
                },
                {
                  "name": "offerStatus",
                  "type": "uint8",
                  "internalType": "enum Protocol.OfferStatus"
                }
              ]
            },
            {
              "name": "returnDate",
              "type": "uint256",
              "internalType": "uint256"
            },
            {
              "name": "lender",
              "type": "address",
              "internalType": "address"
            },
            {
              "name": "loanRequestAddr",
              "type": "address",
              "internalType": "address"
            },
            {
              "name": "status",
              "type": "uint8",
              "internalType": "enum Protocol.Status"
            }
          ]
        }
      ],
      "stateMutability": "view"
    },
    {
      "type": "function",
      "name": "getUsdValue",
      "inputs": [
        {
          "name": "_token",
          "type": "address",
          "internalType": "address"
        },
        {
          "name": "_amount",
          "type": "uint256",
          "internalType": "uint256"
        }
      ],
      "outputs": [
        {
          "name": "",
          "type": "uint256",
          "internalType": "uint256"
        }
      ],
      "stateMutability": "view"
    },
    {
      "type": "function",
      "name": "getUserEmail",
      "inputs": [
        {
          "name": "_user",
          "type": "address",
          "internalType": "address"
        }
      ],
      "outputs": [
        {
          "name": "",
          "type": "string",
          "internalType": "string"
        }
      ],
      "stateMutability": "view"
    },
    {
      "type": "function",
      "name": "getUserRequest",
      "inputs": [
        {
          "name": "_user",
          "type": "address",
          "internalType": "address"
        },
        {
          "name": "_requestId",
          "type": "uint96",
          "internalType": "uint96"
        }
      ],
      "outputs": [
        {
          "name": "",
          "type": "tuple",
          "internalType": "struct Protocol.Request",
          "components": [
            {
              "name": "requestId",
              "type": "uint96",
              "internalType": "uint96"
            },
            {
              "name": "author",
              "type": "address",
              "internalType": "address"
            },
            {
              "name": "amount",
              "type": "uint256",
              "internalType": "uint256"
            },
            {
              "name": "interest",
              "type": "uint8",
              "internalType": "uint8"
            },
            {
              "name": "_totalRepayment",
              "type": "uint256",
              "internalType": "uint256"
            },
            {
              "name": "offer",
              "type": "tuple[]",
              "internalType": "struct Protocol.Offer[]",
              "components": [
                {
                  "name": "offerId",
                  "type": "uint256",
                  "internalType": "uint256"
                },
                {
                  "name": "tokenAddr",
                  "type": "address",
                  "internalType": "address"
                },
                {
                  "name": "author",
                  "type": "address",
                  "internalType": "address"
                },
                {
                  "name": "amount",
                  "type": "uint256",
                  "internalType": "uint256"
                },
                {
                  "name": "interest",
                  "type": "uint8",
                  "internalType": "uint8"
                },
                {
                  "name": "returnDate",
                  "type": "uint256",
                  "internalType": "uint256"
                },
                {
                  "name": "offerStatus",
                  "type": "uint8",
                  "internalType": "enum Protocol.OfferStatus"
                }
              ]
            },
            {
              "name": "returnDate",
              "type": "uint256",
              "internalType": "uint256"
            },
            {
              "name": "lender",
              "type": "address",
              "internalType": "address"
            },
            {
              "name": "loanRequestAddr",
              "type": "address",
              "internalType": "address"
            },
            {
              "name": "status",
              "type": "uint8",
              "internalType": "enum Protocol.Status"
            }
          ]
        }
      ],
      "stateMutability": "view"
    },
    {
      "type": "function",
      "name": "get_gitCoinPoint",
      "inputs": [
        {
          "name": "_user",
          "type": "address",
          "internalType": "address"
        }
      ],
      "outputs": [
        {
          "name": "_score",
          "type": "uint256",
          "internalType": "uint256"
        }
      ],
      "stateMutability": "view"
    },
    {
      "type": "function",
      "name": "gets_addressToCollateralDeposited",
      "inputs": [
        {
          "name": "_sender",
          "type": "address",
          "internalType": "address"
        },
        {
          "name": "_tokenAddr",
          "type": "address",
          "internalType": "address"
        }
      ],
      "outputs": [
        {
          "name": "",
          "type": "uint256",
          "internalType": "uint256"
        }
      ],
      "stateMutability": "view"
    },
    {
      "type": "function",
      "name": "initialize",
      "inputs": [
        {
          "name": "_initialOwner",
          "type": "address",
          "internalType": "address"
        },
        {
          "name": "_tokens",
          "type": "address[]",
          "internalType": "address[]"
        },
        {
          "name": "_priceFeeds",
          "type": "bytes32[]",
          "internalType": "bytes32[]"
        },
        {
          "name": "_peerAddress",
          "type": "address",
          "internalType": "address"
        },
        {
          "name": "pythContract",
          "type": "address",
          "internalType": "address"
        }
      ],
      "outputs": [],
      "stateMutability": "nonpayable"
    },
    {
      "type": "function",
      "name": "isVerified",
      "inputs": [
        {
          "name": "_user",
          "type": "address",
          "internalType": "address"
        }
      ],
      "outputs": [
        {
          "name": "",
          "type": "bool",
          "internalType": "bool"
        }
      ],
      "stateMutability": "view"
    },
    {
      "type": "function",
      "name": "makeLendingOffer",
      "inputs": [
        {
          "name": "_borrower",
          "type": "address",
          "internalType": "address"
        },
        {
          "name": "_requestId",
          "type": "uint96",
          "internalType": "uint96"
        },
        {
          "name": "_amount",
          "type": "uint256",
          "internalType": "uint256"
        },
        {
          "name": "_interest",
          "type": "uint8",
          "internalType": "uint8"
        },
        {
          "name": "_returnedDate",
          "type": "uint256",
          "internalType": "uint256"
        },
        {
          "name": "_tokenAddress",
          "type": "address",
          "internalType": "address"
        }
      ],
      "outputs": [],
      "stateMutability": "nonpayable"
    },
    {
      "type": "function",
      "name": "owner",
      "inputs": [],
      "outputs": [
        {
          "name": "",
          "type": "address",
          "internalType": "address"
        }
      ],
      "stateMutability": "view"
    },
    {
      "type": "function",
      "name": "proxiableUUID",
      "inputs": [],
      "outputs": [
        {
          "name": "",
          "type": "bytes32",
          "internalType": "bytes32"
        }
      ],
      "stateMutability": "view"
    },
    {
      "type": "function",
      "name": "removeCollateralTokens",
      "inputs": [
        {
          "name": "_tokens",
          "type": "address[]",
          "internalType": "address[]"
        }
      ],
      "outputs": [],
      "stateMutability": "nonpayable"
    },
    {
      "type": "function",
      "name": "renounceOwnership",
      "inputs": [],
      "outputs": [],
      "stateMutability": "nonpayable"
    },
    {
      "type": "function",
      "name": "repayLoan",
      "inputs": [
        {
          "name": "_requestId",
          "type": "uint96",
          "internalType": "uint96"
        },
        {
          "name": "_amount",
          "type": "uint256",
          "internalType": "uint256"
        }
      ],
      "outputs": [],
      "stateMutability": "nonpayable"
    },
    {
      "type": "function",
      "name": "respondToLendingOffer",
      "inputs": [
        {
          "name": "_requestId",
          "type": "uint96",
          "internalType": "uint96"
        },
        {
          "name": "_offerId",
          "type": "uint96",
          "internalType": "uint96"
        },
        {
          "name": "_status",
          "type": "uint8",
          "internalType": "enum Protocol.OfferStatus"
        }
      ],
      "outputs": [],
      "stateMutability": "nonpayable"
    },
    {
      "type": "function",
      "name": "serviceRequest",
      "inputs": [
        {
          "name": "_borrower",
          "type": "address",
          "internalType": "address"
        },
        {
          "name": "_requestId",
          "type": "uint8",
          "internalType": "uint8"
        },
        {
          "name": "_tokenAddress",
          "type": "address",
          "internalType": "address"
        }
      ],
      "outputs": [],
      "stateMutability": "nonpayable"
    },
    {
      "type": "function",
      "name": "transferOwnership",
      "inputs": [
        {
          "name": "newOwner",
          "type": "address",
          "internalType": "address"
        }
      ],
      "outputs": [],
      "stateMutability": "nonpayable"
    },
    {
      "type": "function",
      "name": "updateEmail",
      "inputs": [
        {
          "name": "_user",
          "type": "address",
          "internalType": "address"
        },
        {
          "name": "_email",
          "type": "string",
          "internalType": "string"
        },
        {
          "name": "_status",
          "type": "bool",
          "internalType": "bool"
        }
      ],
      "outputs": [],
      "stateMutability": "nonpayable"
    },
    {
      "type": "function",
      "name": "updateGPScore",
      "inputs": [
        {
          "name": "_user",
          "type": "address",
          "internalType": "address"
        },
        {
          "name": "_score",
          "type": "uint256",
          "internalType": "uint256"
        }
      ],
      "outputs": [],
      "stateMutability": "nonpayable"
    },
    {
      "type": "function",
      "name": "updatePriceFeeds",
      "inputs": [
        {
          "name": "priceUpdate",
          "type": "bytes[]",
          "internalType": "bytes[]"
        }
      ],
      "outputs": [],
      "stateMutability": "payable"
    },
    {
      "type": "function",
      "name": "upgradeToAndCall",
      "inputs": [
        {
          "name": "newImplementation",
          "type": "address",
          "internalType": "address"
        },
        {
          "name": "data",
          "type": "bytes",
          "internalType": "bytes"
        }
      ],
      "outputs": [],
      "stateMutability": "payable"
    },
    {
      "type": "function",
      "name": "withdrawCollateral",
      "inputs": [
        {
          "name": "_tokenCollateralAddress",
          "type": "address",
          "internalType": "address"
        },
        {
          "name": "_amount",
          "type": "uint256",
          "internalType": "uint256"
        }
      ],
      "outputs": [],
      "stateMutability": "nonpayable"
    },
    {
      "type": "event",
      "name": "CollateralDeposited",
      "inputs": [
        {
          "name": "_sender",
          "type": "address",
          "indexed": true,
          "internalType": "address"
        },
        {
          "name": "_token",
          "type": "address",
          "indexed": true,
          "internalType": "address"
        },
        {
          "name": "_value",
          "type": "uint256",
          "indexed": false,
          "internalType": "uint256"
        }
      ],
      "anonymous": false
    },
    {
      "type": "event",
      "name": "CollateralWithdrawn",
      "inputs": [
        {
          "name": "sender",
          "type": "address",
          "indexed": true,
          "internalType": "address"
        },
        {
          "name": "_tokenCollateralAddress",
          "type": "address",
          "indexed": true,
          "internalType": "address"
        },
        {
          "name": "_amount",
          "type": "uint256",
          "indexed": false,
          "internalType": "uint256"
        }
      ],
      "anonymous": false
    },
    {
      "type": "event",
      "name": "Initialized",
      "inputs": [
        {
          "name": "version",
          "type": "uint64",
          "indexed": false,
          "internalType": "uint64"
        }
      ],
      "anonymous": false
    },
    {
      "type": "event",
      "name": "LoanRepayment",
      "inputs": [
        {
          "name": "sender",
          "type": "address",
          "indexed": true,
          "internalType": "address"
        },
        {
          "name": "id",
          "type": "uint96",
          "indexed": false,
          "internalType": "uint96"
        },
        {
          "name": "amount",
          "type": "uint256",
          "indexed": false,
          "internalType": "uint256"
        }
      ],
      "anonymous": false
    },
    {
      "type": "event",
      "name": "OfferAccepted",
      "inputs": [
        {
          "name": "sender",
          "type": "address",
          "indexed": true,
          "internalType": "address"
        },
        {
          "name": "id",
          "type": "uint96",
          "indexed": false,
          "internalType": "uint96"
        },
        {
          "name": "amount",
          "type": "uint256",
          "indexed": true,
          "internalType": "uint256"
        }
      ],
      "anonymous": false
    },
    {
      "type": "event",
      "name": "OfferCreated",
      "inputs": [
        {
          "name": "_lender",
          "type": "address",
          "indexed": true,
          "internalType": "address"
        },
        {
          "name": "indexed_tokenAddress",
          "type": "address",
          "indexed": false,
          "internalType": "address"
        },
        {
          "name": "_amount",
          "type": "uint256",
          "indexed": false,
          "internalType": "uint256"
        },
        {
          "name": "_requestId",
          "type": "uint96",
          "indexed": true,
          "internalType": "uint96"
        }
      ],
      "anonymous": false
    },
    {
      "type": "event",
      "name": "OwnershipTransferred",
      "inputs": [
        {
          "name": "previousOwner",
          "type": "address",
          "indexed": true,
          "internalType": "address"
        },
        {
          "name": "newOwner",
          "type": "address",
          "indexed": true,
          "internalType": "address"
        }
      ],
      "anonymous": false
    },
    {
      "type": "event",
      "name": "RequestCreated",
      "inputs": [
        {
          "name": "_borrower",
          "type": "address",
          "indexed": true,
          "internalType": "address"
        },
        {
          "name": "requestId",
          "type": "uint96",
          "indexed": true,
          "internalType": "uint96"
        },
        {
          "name": "_amount",
          "type": "uint256",
          "indexed": false,
          "internalType": "uint256"
        },
        {
          "name": "_interest",
          "type": "uint8",
          "indexed": false,
          "internalType": "uint8"
        }
      ],
      "anonymous": false
    },
    {
      "type": "event",
      "name": "RespondToLendingOffer",
      "inputs": [
        {
          "name": "sender",
          "type": "address",
          "indexed": true,
          "internalType": "address"
        },
        {
          "name": "_offerId",
          "type": "uint256",
          "indexed": true,
          "internalType": "uint256"
        },
        {
          "name": "_status",
          "type": "uint8",
          "indexed": false,
          "internalType": "uint8"
        },
        {
          "name": "_offerStatus",
          "type": "uint8",
          "indexed": false,
          "internalType": "uint8"
        }
      ],
      "anonymous": false
    },
    {
      "type": "event",
      "name": "ServiceRequestSuccessful",
      "inputs": [
        {
          "name": "sender",
          "type": "address",
          "indexed": true,
          "internalType": "address"
        },
        {
          "name": "_borrower",
          "type": "address",
          "indexed": true,
          "internalType": "address"
        },
        {
          "name": "_requestId",
          "type": "uint8",
          "indexed": false,
          "internalType": "uint8"
        },
        {
          "name": "amount",
          "type": "uint256",
          "indexed": false,
          "internalType": "uint256"
        }
      ],
      "anonymous": false
    },
    {
      "type": "event",
      "name": "UpdateLoanableToken",
      "inputs": [
        {
          "name": "_token",
          "type": "address",
          "indexed": true,
          "internalType": "address"
        },
        {
          "name": "_priceFeed",
          "type": "bytes32",
          "indexed": false,
          "internalType": "bytes32"
        },
        {
          "name": "sender",
          "type": "address",
          "indexed": true,
          "internalType": "address"
        }
      ],
      "anonymous": false
    },
    {
      "type": "event",
      "name": "UpdatedCollateralTokens",
      "inputs": [
        {
          "name": "sender",
          "type": "address",
          "indexed": true,
          "internalType": "address"
        },
        {
          "name": "newTokensCount",
          "type": "uint8",
          "indexed": false,
          "internalType": "uint8"
        }
      ],
      "anonymous": false
    },
    {
      "type": "event",
      "name": "Upgraded",
      "inputs": [
        {
          "name": "implementation",
          "type": "address",
          "indexed": true,
          "internalType": "address"
        }
      ],
      "anonymous": false
    },
    {
      "type": "error",
      "name": "AddressEmptyCode",
      "inputs": [
        {
          "name": "target",
          "type": "address",
          "internalType": "address"
        }
      ]
    },
    {
      "type": "error",
      "name": "ERC1967InvalidImplementation",
      "inputs": [
        {
          "name": "implementation",
          "type": "address",
          "internalType": "address"
        }
      ]
    },
    {
      "type": "error",
      "name": "ERC1967NonPayable",
      "inputs": []
    },
    {
      "type": "error",
      "name": "FailedInnerCall",
      "inputs": []
    },
    {
      "type": "error",
      "name": "InvalidInitialization",
      "inputs": []
    },
    {
      "type": "error",
      "name": "NotInitializing",
      "inputs": []
    },
    {
      "type": "error",
      "name": "OwnableInvalidOwner",
      "inputs": [
        {
          "name": "owner",
          "type": "address",
          "internalType": "address"
        }
      ]
    },
    {
      "type": "error",
      "name": "OwnableUnauthorizedAccount",
      "inputs": [
        {
          "name": "account",
          "type": "address",
          "internalType": "address"
        }
      ]
    },
    {
      "type": "error",
      "name": "Protocol__BreaksHealthFactor",
      "inputs": []
    },
    {
      "type": "error",
      "name": "Protocol__DateMustBeInFuture",
      "inputs": []
    },
    {
      "type": "error",
      "name": "Protocol__EmailNotVerified",
      "inputs": []
    },
    {
      "type": "error",
      "name": "Protocol__InsufficientAllowance",
      "inputs": []
    },
    {
      "type": "error",
      "name": "Protocol__InsufficientBalance",
      "inputs": []
    },
    {
      "type": "error",
      "name": "Protocol__InsufficientCollateral",
      "inputs": []
    },
    {
      "type": "error",
      "name": "Protocol__InsufficientCollateralDeposited",
      "inputs": []
    },
    {
      "type": "error",
      "name": "Protocol__InvalidAddress",
      "inputs": []
    },
    {
      "type": "error",
      "name": "Protocol__InvalidAmount",
      "inputs": []
    },
    {
      "type": "error",
      "name": "Protocol__InvalidId",
      "inputs": []
    },
    {
      "type": "error",
      "name": "Protocol__InvalidToken",
      "inputs": []
    },
    {
      "type": "error",
      "name": "Protocol__MustBeMoreThanZero",
      "inputs": []
    },
    {
      "type": "error",
      "name": "Protocol__OfferNotOpen",
      "inputs": []
    },
    {
      "type": "error",
      "name": "Protocol__RequestNotOpen",
      "inputs": []
    },
    {
      "type": "error",
      "name": "Protocol__RequestNotServiced",
      "inputs": []
    },
    {
      "type": "error",
      "name": "Protocol__TokenNotAllowed",
      "inputs": []
    },
    {
      "type": "error",
      "name": "Protocol__TokenNotLoanable",
      "inputs": []
    },
    {
      "type": "error",
      "name": "Protocol__TransferFailed",
      "inputs": []
    },
    {
      "type": "error",
      "name": "Protocol__Unauthorized",
      "inputs": []
    },
    {
      "type": "error",
      "name": "Protocol__tokensAndPriceFeedsArrayMustBeSameLength",
      "inputs": []
    },
    {
      "type": "error",
      "name": "UUPSUnauthorizedCallContext",
      "inputs": []
    },
    {
      "type": "error",
      "name": "UUPSUnsupportedProxiableUUID",
      "inputs": [
        {
          "name": "slot",
          "type": "bytes32",
          "internalType": "bytes32"
        }
      ]
    }
  ],
  "bytecode": {
    "object": "0x60a06040523060805234801561001457600080fd5b5060805161471561003e600039600081816131260152818161314f015261329001526147156000f3fe6080604052600436106101e35760003560e01c806388bd658511610102578063c147a89211610095578063ef9e5e2811610064578063ef9e5e281461060f578063f2cc0ba514610622578063f2fde38b1461065b578063f9f22ec21461067b57600080fd5b8063c147a8921461058f578063c660d112146105af578063eb703464146105cf578063ecb0fe38146105ef57600080fd5b8063ad3cb1cc116100d1578063ad3cb1cc146104d6578063b202dc2014610507578063b9209e331461051c578063bf3439431461056f57600080fd5b806388bd6585146104225780638da5cb5b146104425780639480e94814610489578063a5d5db0c146104b657600080fd5b80634f1ef2861161017a5780635894473011610149578063589447301461039e578063715018a6146103cb5780637d1a4450146103e057806386f5483f1461040057600080fd5b80634f1ef28614610300578063527ed1261461031357806352d1902d14610367578063545569ba1461037c57600080fd5b806315b19dc2116101b657806315b19dc214610280578063350c35e9146102a057806341239496146102c057806342e292c1146102e057600080fd5b806302727e34146101e8578063065a1f871461021e5780631143e606146102405780631308aedc14610260575b600080fd5b3480156101f457600080fd5b5061020861020336600461391b565b61069b565b6040516102159190613ae2565b60405180910390f35b34801561022a57600080fd5b5061023e610239366004613bb7565b610aab565b005b34801561024c57600080fd5b5061020861025b366004613c2c565b610aec565b34801561026c57600080fd5b5061023e61027b366004613c70565b610cac565b34801561028c57600080fd5b5061023e61029b366004613dae565b611049565b3480156102ac57600080fd5b5061023e6102bb366004613e43565b6112dd565b3480156102cc57600080fd5b5061023e6102db366004613e6d565b61148b565b3480156102ec57600080fd5b5061023e6102fb366004613e43565b61185b565b61023e61030e366004613eb0565b611882565b34801561031f57600080fd5b5061035961032e366004613f11565b6001600160a01b03918216600090815260036020908152604080832093909416825291909152205490565b604051908152602001610215565b34801561037357600080fd5b506103596118a1565b34801561038857600080fd5b506103916118be565b6040516102159190613f3b565b3480156103aa57600080fd5b506103be6103b9366004613c2c565b611cd8565b6040516102159190613f9f565b3480156103d757600080fd5b5061023e611de8565b3480156103ec57600080fd5b506103596103fb366004613fe8565b611dfc565b34801561040c57600080fd5b50610415611e79565b6040516102159190614003565b34801561042e57600080fd5b5061023e61043d366004613e43565b611edb565b34801561044e57600080fd5b507f9016d09d72d40fdae2fd8ceac6b6234c7706214fd39c1cd1e609a0528c199300546040516001600160a01b039091168152602001610215565b34801561049557600080fd5b506104a96104a4366004613fe8565b611f93565b6040516102159190614068565b3480156104c257600080fd5b5061023e6104d1366004613e43565b61203f565b3480156104e257600080fd5b506104a9604051806040016040528060058152602001640352e302e360dc1b81525081565b34801561051357600080fd5b506104156121aa565b34801561052857600080fd5b5061055f610537366004613fe8565b6001600160a01b0316600090815260046020526040902060010154600160a01b900460ff1690565b6040519015158152602001610215565b34801561057b57600080fd5b5061023e61058a36600461409b565b61220a565b34801561059b57600080fd5b5061023e6105aa366004614101565b61258d565b3480156105bb57600080fd5b506103596105ca366004613e43565b6127c6565b3480156105db57600080fd5b5061023e6105ea36600461411d565b6128cc565b3480156105fb57600080fd5b5061023e61060a366004614176565b612a15565b61023e61061d3660046141b6565b612c4f565b34801561062e57600080fd5b5061035961063d366004613fe8565b6001600160a01b031660009081526004602052604090206002015490565b34801561066757600080fd5b5061023e610676366004613fe8565b612d2f565b34801561068757600080fd5b5061023e61069636600461422a565b612d6d565b6106a361375f565b816001600160601b03166000036106cd5760405163239de89960e11b815260040160405180910390fd5b6008546001600160601b038316106106f85760405163239de89960e11b815260040160405180910390fd5b6000600861070760018561427c565b6001600160601b031681548110610720576107206142a3565b600091825260208083206040805161014081018252600890940290910180546001600160601b03811685526001600160a01b03600160601b9091041684840152600181015484830152600281015460ff166060850152600381015460808501526004810180548351818602810186019094528084529495919460a08701949192909184015b8282101561085b5760008481526020908190206040805160e081018252600786029092018054835260018101546001600160a01b03908116948401949094526002808201549094169183019190915260038101546060830152600481015460ff9081166080840152600582015460a084015260068201549293919260c085019291169081111561083757610837613936565b600281111561084857610848613936565b81525050815260200190600101906107a5565b505050908252506005820154602082015260068201546001600160a01b03908116604083015260078301549081166060830152608090910190600160a01b900460ff1660028111156108af576108af613936565b60028111156108c0576108c0613936565b90525060208101519091506001600160a01b0316156108f2576040516377d7571d60e01b815260040160405180910390fd5b6020808201516001600160a01b0390811660009081526005835260408082206001600160601b03808916845290855281832082516101408101845281549283168152600160601b90920490941681860152600184015481830152600284015460ff16606082015260038401546080820152600484018054835181880281018801909452808452919560a08701949192919084015b82821015610a3c5760008481526020908190206040805160e081018252600786029092018054835260018101546001600160a01b03908116948401949094526002808201549094169183019190915260038101546060830152600481015460ff9081166080840152600582015460a084015260068201549293919260c0850192911690811115610a1857610a18613936565b6002811115610a2957610a29613936565b8152505081526020019060010190610986565b505050908252506005820154602082015260068201546001600160a01b03908116604083015260078301549081166060830152608090910190600160a01b900460ff166002811115610a9057610a90613936565b6002811115610aa157610aa1613936565b9052509392505050565b6001600160a01b038316600090815260046020526040902060018101805460ff60a01b1916600160a01b84151502179055610ae6838261433d565b50505050565b610af461375f565b6001600160a01b0380841660009081526005602090815260408083206001600160601b03808816855290835281842082516101408101845281549283168152600160601b90920490951681840152600185015481830152600285015460ff1660608201526003850154608082015260048501805483518186028101860190945280845291959460a087019491929184015b82821015610c3b5760008481526020908190206040805160e081018252600786029092018054835260018101546001600160a01b03908116948401949094526002808201549094169183019190915260038101546060830152600481015460ff9081166080840152600582015460a084015260068201549293919260c0850192911690811115610c1757610c17613936565b6002811115610c2857610c28613936565b8152505081526020019060010190610b85565b505050908252506005820154602082015260068201546001600160a01b03908116604083015260078301549081166060830152608090910190600160a01b900460ff166002811115610c8f57610c8f613936565b6002811115610ca057610ca0613936565b90525090505b92915050565b610cb584612f52565b6001600160a01b03811660009081526002602052604090205460ff16610cee576040516356d7e0a760e11b815260040160405180910390fd5b610cf733612f73565b6000610d0382866127c6565b90506001811015610d2757604051632894e1e760e11b815260040160405180910390fd5b6000610d3233611dfc565b905060006064610d438360556143fc565b610d4d9190614413565b336000908152600460205260409020600301549091508190610d70908590614435565b10610d8e576040516301401b1b60e61b815260040160405180910390fd5b600b54610da5906001600160601b03166001614448565b600b80546bffffffffffffffffffffffff19166001600160601b03929092169182179055336000818152600560208181526040808420868552909152909120600160601b90920290921781556001810189905560028101805460ff191660ff8a16179055908101869055610e1b86898988612fb6565b600382019081556007820180546001600160a01b038881166001600160a81b031990921691909117909155600880546001818101835560008390528554919092027ff3f7a9fe364faab93b216da50a3214154f22a0a2b415b23a84c8169e8b636ee3810180546bffffffffffffffffffffffff19166001600160601b0390931692831781558654600160601b908190049095169094029091178355908401547ff3f7a9fe364faab93b216da50a3214154f22a0a2b415b23a84c8169e8b636ee482015560028401547ff3f7a9fe364faab93b216da50a3214154f22a0a2b415b23a84c8169e8b636ee58201805460ff191660ff90921691909117905591547ff3f7a9fe364faab93b216da50a3214154f22a0a2b415b23a84c8169e8b636ee68301556004830180548493610f73927ff3f7a9fe364faab93b216da50a3214154f22a0a2b415b23a84c8169e8b636ee7909101916137b0565b506005828101549082015560068083015490820180546001600160a01b03199081166001600160a01b03938416179091556007808501805491850180549384169290941691821784555460ff600160a01b918290041693926001600160a81b03191690911790836002811115610feb57610feb613936565b021790555050600b54604080518b815260ff8b1660208201526001600160601b03909216925033917f0807eacd5bad907205ebefdda3454f0f6cc3a26350e903c00cb8ea89a8d05a7c91015b60405180910390a35050505050505050565b7ff0c57e16840df040f15088dc2f81fe391c3923bec73e23a9662efc9c229c6a008054600160401b810460ff1615906001600160401b031660008115801561108e5750825b90506000826001600160401b031660011480156110aa5750303b155b9050811580156110b8575080155b156110d65760405163f92ee8a960e01b815260040160405180910390fd5b845467ffffffffffffffff19166001178555831561110057845460ff60401b1916600160401b1785555b6111098a612ff6565b875189511461112b5760405163082e439b60e31b815260040160405180910390fd5b60005b89518160ff16101561125a576001600260008c8460ff1681518110611155576111556142a3565b60200260200101516001600160a01b03166001600160a01b0316815260200190815260200160002060006101000a81548160ff021916908315150217905550888160ff16815181106111a9576111a96142a3565b6020026020010151600160008c8460ff16815181106111ca576111ca6142a3565b60200260200101516001600160a01b03166001600160a01b031681526020019081526020016000208190555060068a8260ff168151811061120d5761120d6142a3565b60209081029190910181015182546001810184556000938452919092200180546001600160a01b0319166001600160a01b039092169190911790558061125281614468565b91505061112e565b50600080546001600160a01b03808a166001600160a01b031992831617909255600980549289169290911691909117905583156112d157845460ff60401b19168555604051600181527fc7f505b2f371ae2175ee4913f4499e1f2633a7b5936321eed1cdaeb6115181d29060200160405180910390a15b50505050505050505050565b6112e681612f52565b6112f1826001613007565b6112fa33612f73565b3360009081526003602090815260408083206001600160a01b03861684529091529020548181101561133f57604051634a1dbc7160e11b815260040160405180910390fd5b3360009081526003602090815260408083206001600160a01b038716845290915281208054849290611372908490614487565b9091555061138190503361303d565b60405163a9059cbb60e01b8152336004820152602481018390526000906001600160a01b0385169063a9059cbb906044016020604051808303816000875af11580156113d1573d6000803e3d6000fd5b505050506040513d601f19601f820116820180604052508101906113f5919061449a565b9050806114445760405162461bcd60e51b8152602060048201526018602482015277141c9bdd1bd8dbdb17d7d51c985b9cd9995c91985a5b195960421b60448201526064015b60405180910390fd5b6040518381526001600160a01b0385169033907f45892a46e6cef329bb642da6d69846d324db43d19008edc141ed82382eda1bee906020015b60405180910390a350505050565b61149433612f73565b6001600160a01b038316600090815260056020908152604080832060ff861684529091528120906007820154600160a01b900460ff1660028111156114db576114db613936565b146114f957604051630308adab60e11b815260040160405180910390fd5b60078101546001600160a01b0383811691161461152957604051638d6a7ae360e01b815260040160405180910390fd5b6006810180546001600160a01b031916331790556007810180546001919060ff60a01b1916600160a01b83021790555060018101546040516370a0823160e01b815233600482015281906001600160a01b038516906370a0823190602401602060405180830381865afa1580156115a4573d6000803e3d6000fd5b505050506040513d601f19601f820116820180604052508101906115c891906144b7565b10156115e757604051632c67d2bb60e21b815260040160405180910390fd5b604051636eb1769f60e11b815233600482015230602482015281906001600160a01b0385169063dd62ed3e90604401602060405180830381865afa158015611633573d6000803e3d6000fd5b505050506040513d601f19601f8201168201806040525081019061165791906144b7565b10156116765760405163664487c960e11b815260040160405180910390fd5b600061168284836127c6565b60058401546001850154600286015460078701549394506000936116b493929160ff16906001600160a01b0316612fb6565b6116be9083614435565b60038581018290558554600160601b90046001600160a01b03166000908152600460205260408120909101805492935083929091906116fe908490614435565b9091555050835460019061172190600160601b90046001600160a01b031661306c565b1015611740576040516301401b1b60e61b815260040160405180910390fd5b6040516323b872dd60e01b81526000906001600160a01b038716906323b872dd906117739033908c9089906004016144d0565b6020604051808303816000875af1158015611792573d6000803e3d6000fd5b505050506040513d601f19601f820116820180604052508101906117b6919061449a565b9050806118005760405162461bcd60e51b8152602060048201526018602482015277141c9bdd1bd8dbdb17d7d51c985b9cd9995c91985a5b195960421b604482015260640161143b565b60078501805460ff60a01b1916600160a01b1790556040805160ff89168152602081018690526001600160a01b038a169133917f68ef04fb42d7e82507c8eaf02fcc640e240c344b11c6df3e26f182cde14b5df69101611037565b6118636130c0565b6001600160a01b03909116600090815260046020526040902060020155565b61188a61311b565b611893826131c0565b61189d82826131c8565b5050565b60006118ab613285565b506000805160206146c083398151915290565b600b5460609060016001600160601b0390911610156118f05760405163239de89960e11b815260040160405180910390fd5b600a54600111156119145760405163239de89960e11b815260040160405180910390fd5b6000805b600a548110156119cc5760005b600b546001600160601b03908116908216116119c35760006001600160a01b031660056000600a858154811061195d5761195d6142a3565b60009182526020808320909101546001600160a01b03908116845283820194909452604092830182206001600160601b038716835290522054600160601b900416146119b157826119ad816144f4565b9350505b806119bb8161450d565b915050611925565b50600101611918565b506000816001600160401b038111156119e7576119e7613b0c565b604051908082528060200260200182016040528015611a2057816020015b611a0d61375f565b815260200190600190039081611a055790505b5090506000805b600a54811015611ccf5760005b600b546001600160601b0390811690821611611cc65760006001600160a01b031660056000600a8581548110611a6c57611a6c6142a3565b60009182526020808320909101546001600160a01b03908116845283820194909452604092830182206001600160601b038716835290522054600160601b90041614611cb45760056000600a8481548110611ac957611ac96142a3565b60009182526020808320909101546001600160a01b03908116845283820194909452604092830182206001600160601b03808716845290825283832084516101408101865281549283168152600160601b90920490951681830152600185015481850152600285015460ff1660608201526003850154608082015260048501805485518185028101850190965280865291959460a0870194909391929184015b82821015611c1f5760008481526020908190206040805160e081018252600786029092018054835260018101546001600160a01b03908116948401949094526002808201549094169183019190915260038101546060830152600481015460ff9081166080840152600582015460a084015260068201549293919260c0850192911690811115611bfb57611bfb613936565b6002811115611c0c57611c0c613936565b8152505081526020019060010190611b69565b505050908252506005820154602082015260068201546001600160a01b03908116604083015260078301549081166060830152608090910190600160a01b900460ff166002811115611c7357611c73613936565b6002811115611c8457611c84613936565b81525050848481518110611c9a57611c9a6142a3565b60200260200101819052508280611cb0906144f4565b9350505b80611cbe8161450d565b915050611a34565b50600101611a27565b50909392505050565b6001600160a01b03821660009081526005602090815260408083206001600160601b0385168452825280832060048101805483518186028101860190945280845260609592949192909184015b82821015611ddb5760008481526020908190206040805160e081018252600786029092018054835260018101546001600160a01b03908116948401949094526002808201549094169183019190915260038101546060830152600481015460ff9081166080840152600582015460a084015260068201549293919260c0850192911690811115611db757611db7613936565b6002811115611dc857611dc8613936565b8152505081526020019060010190611d25565b5050505091505092915050565b611df06130c0565b611dfa60006132ce565b565b6000805b600654811015611e7357600060068281548110611e1f57611e1f6142a3565b60009182526020808320909101546001600160a01b03878116845260038352604080852091909216808552925290912054909150611e5d82826127c6565b611e679085614435565b93505050600101611e00565b50919050565b60606007805480602002602001604051908101604052809291908181526020018280548015611ed157602002820191906000526020600020905b81546001600160a01b03168152600190910190602001808311611eb3575b5050505050905090565b611ee36130c0565b6001600160a01b0382166000818152600260209081526040808320805460ff19166001908117909155918290528083208590556007805492830181559092527fa66cc928b5edb82af9bd49922954155ab7b0942694bea4ce44661d9a8736c6880180546001600160a01b03191683179055513391907f9f19fcb1a937dd3e369cba40ca1965cc82e45072e4692441109145bf5919a51c90611f879085815260200190565b60405180910390a35050565b6001600160a01b0381166000908152600460205260409020805460609190611fba906142b9565b80601f0160208091040260200160405190810160405280929190818152602001828054611fe6906142b9565b80156120335780601f1061200857610100808354040283529160200191612033565b820191906000526020600020905b81548152906001019060200180831161201657829003601f168201915b50505050509050919050565b61204881612f52565b612053826001613007565b3360009081526003602090815260408083206001600160a01b038616845290915281208054839290612086908490614435565b9091555050600a80546001810182556000919091527fc65a7bb8d6351c1cf70c95a316cc6a92839c986682d98bc35f958f4883f9d2a80180546001600160a01b031916339081179091556040518281526001600160a01b03841691907ff1c0dd7e9b98bbff859029005ef89b127af049cd18df1a8d79f0b7e019911e569060200160405180910390a36040516323b872dd60e01b81526000906001600160a01b038416906323b872dd90612142903390309087906004016144d0565b6020604051808303816000875af1158015612161573d6000803e3d6000fd5b505050506040513d601f19601f82011682018060405250810190612185919061449a565b9050806121a557604051633ef92ae360e01b815260040160405180910390fd5b505050565b60606006805480602002602001604051908101604052809291908181526020018280548015611ed1576020028201919060005260206000209081546001600160a01b03168152600190910190602001808311611eb3575050505050905090565b61221384612f52565b61221f8360ff16612f52565b61222833612f73565b6001600160a01b03861660009081526005602090815260408083206001600160601b03891684529091528120906007820154600160a01b900460ff16600281111561227557612275613936565b1461229357604051630308adab60e11b815260040160405180910390fd5b6040516370a0823160e01b815233600482015285906001600160a01b038416906370a0823190602401602060405180830381865afa1580156122d9573d6000803e3d6000fd5b505050506040513d601f19601f820116820180604052508101906122fd91906144b7565b101561231c57604051632c67d2bb60e21b815260040160405180910390fd5b60078101546001600160a01b0383811691161461234c57604051638d6a7ae360e01b815260040160405180910390fd5b60405163095ea7b360e01b8152306004820152602481018690526001600160a01b0383169063095ea7b3906044016020604051808303816000875af1158015612399573d6000803e3d6000fd5b505050506040513d601f19601f820116820180604052508101906123bd919061449a565b50600b546123dc90600160601b90046001600160601b03166001614448565b600b600c6101000a8154816001600160601b0302191690836001600160601b0316021790555061243f6040805160e081018252600080825260208201819052918101829052606081018290526080810182905260a081018290529060c082015290565b600b54600160601b90046001600160601b0316815233604082015260ff851660808201526001600160a01b038316602082015260a08101849052600060c0820181905250606081018681526004808401805460018181018355600092835260209283902086516007909302019182559185015181830180546001600160a01b039283166001600160a01b031991821617909155604087015160028085018054929094169190921617909155935160038201556080850151928101805460ff90941660ff1994851617905560a0850151600582015560c08501516006820180548796939592949193921691849081111561253a5761253a613936565b021790555050604080516001600160a01b0386168152602081018990526001600160601b038a16925033917fdf16db0d27d7635b8d159cc120b79ee1f896448cea3cfbeed50b227cdcb5d07f9101611037565b61259633612f73565b3360009081526005602090815260408083206001600160601b0386168452909152812060078101549091906125d4906001600160a01b0316846127c6565b905060016007830154600160a01b900460ff1660028111156125f8576125f8613936565b1461261657604051631b582c3360e01b815260040160405180910390fd5b60078201546040516370a0823160e01b81523360048201526001600160a01b0390911690849082906370a0823190602401602060405180830381865afa158015612664573d6000803e3d6000fd5b505050506040513d601f19601f8201168201806040525081019061268891906144b7565b10156126a757604051632c67d2bb60e21b815260040160405180910390fd5b818360030154106126d157818360030160008282546126c69190614487565b909155506126df9050565b600383018054600090915591505b82600301546000036127015760078301805460ff60a01b1916600160a11b1790555b60068301546040516323b872dd60e01b81526001600160a01b03808416926323b872dd92612737923392169089906004016144d0565b6020604051808303816000875af1158015612756573d6000803e3d6000fd5b505050506040513d601f19601f8201168201806040525081019061277a919061449a565b50604080516001600160601b03871681526020810186905233917fe4da8da4d1fb918a46281382df3b2a3b88ac58a0f388dd4766074deaf8442e4d910160405180910390a25050505050565b6001600160a01b038216600090815260016020526040812054806127fd57604051638d6a7ae360e01b815260040160405180910390fd5b6009546040516331d98b3f60e01b8152600481018390526000916001600160a01b0316906331d98b3f90602401608060405180830381865afa158015612847573d6000803e3d6000fd5b505050506040513d601f19601f8201168201806040525081019061286b9190614533565b805190915060070b6000811215612895576040516351c6e81760e01b815260040160405180910390fd5b670de0b6b3a7640000856128ae6402540be400846143fc565b6128b891906143fc565b6128c29190614413565b9695505050505050565b6128d46130c0565b6128dd33612f73565b80518251146128ff5760405163082e439b60e31b815260040160405180910390fd5b60005b82518160ff1610156129d457818160ff1681518110612923576129236142a3565b602002602001015160016000858460ff1681518110612944576129446142a3565b60200260200101516001600160a01b03166001600160a01b03168152602001908152602001600020819055506006838260ff1681518110612987576129876142a3565b60209081029190910181015182546001810184556000938452919092200180546001600160a01b0319166001600160a01b03909216919091179055806129cc81614468565b915050612902565b5060065460405160ff909116815233907f0925d805c5c6b06c1ed914b3b0fbc81bd432609f86b0b87d11c28ce5589eaa559060200160405180910390a25050565b612a1e33612f73565b3360009081526005602090815260408083206001600160601b03871684529091528120906007820154600160a01b900460ff166002811115612a6257612a62613936565b14612a8057604051630308adab60e11b815260040160405180910390fd5b60048101546001600160601b0384161115612aae5760405163239de89960e11b815260040160405180910390fd5b600081600401846001600160601b031681548110612ace57612ace6142a3565b6000918252602082206007909102019150600682015460ff166002811115612af857612af8613936565b14612b1657604051633bb6356d60e11b815260040160405180910390fd5b8154600160601b90046001600160a01b03163314612b47576040516322b9d68360e11b815260040160405180910390fd5b60068101805484919060ff19166001836002811115612b6857612b68613936565b02179055506002836002811115612b8157612b81613936565b03612b9657612b9182828661333f565b612bc3565b6001836002811115612baa57612baa613936565b03612bc357612bc381600601805460ff19166001179055565b60078201546001600160601b0385169033907fab279fedbdba1d45060b4c9e9bcd25880fd8bb000daf59c9504616277660346290600160a01b900460ff166002811115612c1257612c12613936565b600685015460ff166002811115612c2b57612c2b613936565b6040805160ff93841681529290911660208301520160405180910390a35050505050565b60095460405163d47eed4560e01b81526000916001600160a01b03169063d47eed4590612c8290869086906004016145f2565b602060405180830381865afa158015612c9f573d6000803e3d6000fd5b505050506040513d601f19601f82011682018060405250810190612cc391906144b7565b600954604051631df3cbc560e31b81529192506001600160a01b03169063ef9e5e28908390612cf890879087906004016145f2565b6000604051808303818588803b158015612d1157600080fd5b505af1158015612d25573d6000803e3d6000fd5b5050505050505050565b612d376130c0565b6001600160a01b038116612d6157604051631e4fbdf760e01b81526000600482015260240161143b565b612d6a816132ce565b50565b612d756130c0565b612d7e33612f73565b60005b81518160ff161015612f12576000801b60016000848460ff1681518110612daa57612daa6142a3565b60200260200101516001600160a01b03166001600160a01b031681526020019081526020016000208190555060005b60065460ff82161015612eff57828260ff1681518110612dfb57612dfb6142a3565b60200260200101516001600160a01b031660068260ff1681548110612e2257612e226142a3565b6000918252602090912001546001600160a01b031603612eed5760068054612e4c90600190614487565b81548110612e5c57612e5c6142a3565b600091825260209091200154600680546001600160a01b039092169160ff8416908110612e8b57612e8b6142a3565b9060005260206000200160006101000a8154816001600160a01b0302191690836001600160a01b031602179055506006805480612eca57612eca61468d565b600082815260209020810160001990810180546001600160a01b03191690550190555b80612ef781614468565b915050612dd9565b5080612f0a81614468565b915050612d81565b5060065460405160ff909116815233907f0925d805c5c6b06c1ed914b3b0fbc81bd432609f86b0b87d11c28ce5589eaa559060200160405180910390a250565b60008111612d6a576040516351c6e81760e01b815260040160405180910390fd5b6001600160a01b038116600090815260046020526040902060010154600160a01b900460ff16612d6a5760405163ba7330c360e01b815260040160405180910390fd5b600042851015612fd957604051635ac7b73160e01b815260040160405180910390fd5b6000612fe583866127c6565b905060646128b860ff8616836143fc565b612ffe613512565b612d6a8161355b565b6001600160a01b03821660009081526020829052604090205461189d5760405163335dc1d160e01b815260040160405180910390fd5b60006130488261306c565b9050600181101561189d576040516306142b2f60e41b815260040160405180910390fd5b600080600061307a84613563565b90925090506000606461308e6055846143fc565b6130989190614413565b9050826130ad670de0b6b3a7640000836143fc565b6130b79190614413565b95945050505050565b336130f27f9016d09d72d40fdae2fd8ceac6b6234c7706214fd39c1cd1e609a0528c199300546001600160a01b031690565b6001600160a01b031614611dfa5760405163118cdaa760e01b815233600482015260240161143b565b306001600160a01b037f00000000000000000000000000000000000000000000000000000000000000001614806131a257507f00000000000000000000000000000000000000000000000000000000000000006001600160a01b03166131966000805160206146c0833981519152546001600160a01b031690565b6001600160a01b031614155b15611dfa5760405163703e46dd60e11b815260040160405180910390fd5b612d6a6130c0565b816001600160a01b03166352d1902d6040518163ffffffff1660e01b8152600401602060405180830381865afa925050508015613222575060408051601f3d908101601f1916820190925261321f918101906144b7565b60015b61324a57604051634c9c8ce360e01b81526001600160a01b038316600482015260240161143b565b6000805160206146c0833981519152811461327b57604051632a87526960e21b81526004810182905260240161143b565b6121a58383613590565b306001600160a01b037f00000000000000000000000000000000000000000000000000000000000000001614611dfa5760405163703e46dd60e11b815260040160405180910390fd5b7f9016d09d72d40fdae2fd8ceac6b6234c7706214fd39c1cd1e609a0528c19930080546001600160a01b031981166001600160a01b03848116918217845560405192169182907f8be0079c531659141344cd1fd0a4f28419497f9722a3daafe3b4186f6b6457e090600090a3505050565b600282810154600685810180546001600160a01b0319166001600160a01b0393841617905560078601805460ff60a01b1916600160a01b1790558401805460ff191690921790915560058301546003840154600485015460018601546000946133ae94939260ff169116612fb6565b60038581018290558554600160601b90046001600160a01b03166000908152600460205260408120909101805492935083929091906133ee908490614435565b9091555050835460019061341190600160601b90046001600160a01b031661306c565b1015613430576040516301401b1b60e61b815260040160405180910390fd5b60018301546002840154855460038601546040516323b872dd60e01b81526001600160a01b03948516946323b872dd9461347c9490821693600160601b909104909116916004016144d0565b6020604051808303816000875af115801561349b573d6000803e3d6000fd5b505050506040513d601f19601f820116820180604052508101906134bf919061449a565b50600383015484546040516001600160601b0385168152600160601b9091046001600160a01b0316907fb025ffaea53389db0d078526e665be7950273096aa78f9163da82946accaa5999060200161147d565b7ff0c57e16840df040f15088dc2f81fe391c3923bec73e23a9662efc9c229c6a0054600160401b900460ff16611dfa57604051631afcd79f60e31b815260040160405180910390fd5b612d37613512565b6001600160a01b0381166000908152600460205260408120600301549061358983611dfc565b9050915091565b613599826135e6565b6040516001600160a01b038316907fbc7cd75a20ee27fd9adebab32041f755214dbc6bffa90cc0225b39da2e5c2d3b90600090a28051156135de576121a5828261364b565b61189d6136b8565b806001600160a01b03163b60000361361c57604051634c9c8ce360e01b81526001600160a01b038216600482015260240161143b565b6000805160206146c083398151915280546001600160a01b0319166001600160a01b0392909216919091179055565b6060600080846001600160a01b03168460405161366891906146a3565b600060405180830381855af49150503d80600081146136a3576040519150601f19603f3d011682016040523d82523d6000602084013e6136a8565b606091505b50915091506130b78583836136d7565b3415611dfa5760405163b398979f60e01b815260040160405180910390fd5b6060826136ec576136e782613736565b61372f565b815115801561370357506001600160a01b0384163b155b1561372c57604051639996b31560e01b81526001600160a01b038516600482015260240161143b565b50805b9392505050565b8051156137465780518082602001fd5b604051630a12f52160e11b815260040160405180910390fd5b604080516101408101825260008082526020820181905291810182905260608082018390526080820183905260a082015260c0810182905260e0810182905261010081018290529061012082015290565b8280548282559060005260206000209060070281019282156138905760005260206000209160070282015b82811115613890578254825560018084015481840180546001600160a01b03199081166001600160a01b03938416179091556002808701548187018054909316931692909217905560038086015490850155600480860154908501805460ff1990811660ff9384161790915560058088015490870155600680880154908701805489968996939095169491931691849081111561387a5761387a613936565b02179055505050916007019190600701906137db565b5061389c9291506138a0565b5090565b5b8082111561389c5760008082556001820180546001600160a01b031990811690915560028301805490911690556003820181905560048201805460ff19908116909155600583019190915560068201805490911690556007016138a1565b80356001600160601b038116811461391657600080fd5b919050565b60006020828403121561392d57600080fd5b61372f826138ff565b634e487b7160e01b600052602160045260246000fd5b60038110612d6a57634e487b7160e01b600052602160045260246000fd5b805182526000602082015160018060a01b03808216602086015280604085015116604086015250506060820151606084015260ff608083015116608084015260a082015160a084015260c08201516139c18161394c565b60c0840152505060e00190565b60008151808452602080850194506020840160005b83811015613a04576139f687835161396a565b9650908201906001016139e3565b509495945050505050565b613a188161394c565b9052565b80516001600160601b0316825260006101406020830151613a4860208601826001600160a01b03169052565b50604083015160408501526060830151613a67606086018260ff169052565b506080830151608085015260a08301518160a0860152613a89828601826139ce565b91505060c083015160c085015260e0830151613ab060e08601826001600160a01b03169052565b50610100838101516001600160a01b03169085015261012080840151613ad882870182613a0f565b5090949350505050565b60208152600061372f6020830184613a1c565b80356001600160a01b038116811461391657600080fd5b634e487b7160e01b600052604160045260246000fd5b604051601f8201601f191681016001600160401b0381118282101715613b4a57613b4a613b0c565b604052919050565b60006001600160401b03831115613b6b57613b6b613b0c565b613b7e601f8401601f1916602001613b22565b9050828152838383011115613b9257600080fd5b828260208301376000602084830101529392505050565b8015158114612d6a57600080fd5b600080600060608486031215613bcc57600080fd5b613bd584613af5565b925060208401356001600160401b03811115613bf057600080fd5b8401601f81018613613c0157600080fd5b613c1086823560208401613b52565b9250506040840135613c2181613ba9565b809150509250925092565b60008060408385031215613c3f57600080fd5b613c4883613af5565b9150613c56602084016138ff565b90509250929050565b803560ff8116811461391657600080fd5b60008060008060808587031215613c8657600080fd5b84359350613c9660208601613c5f565b925060408501359150613cab60608601613af5565b905092959194509250565b60006001600160401b03821115613ccf57613ccf613b0c565b5060051b60200190565b600082601f830112613cea57600080fd5b81356020613cff613cfa83613cb6565b613b22565b8083825260208201915060208460051b870101935086841115613d2157600080fd5b602086015b84811015613d4457613d3781613af5565b8352918301918301613d26565b509695505050505050565b600082601f830112613d6057600080fd5b81356020613d70613cfa83613cb6565b8083825260208201915060208460051b870101935086841115613d9257600080fd5b602086015b84811015613d445780358352918301918301613d97565b600080600080600060a08688031215613dc657600080fd5b613dcf86613af5565b945060208601356001600160401b0380821115613deb57600080fd5b613df789838a01613cd9565b95506040880135915080821115613e0d57600080fd5b50613e1a88828901613d4f565b935050613e2960608701613af5565b9150613e3760808701613af5565b90509295509295909350565b60008060408385031215613e5657600080fd5b613e5f83613af5565b946020939093013593505050565b600080600060608486031215613e8257600080fd5b613e8b84613af5565b9250613e9960208501613c5f565b9150613ea760408501613af5565b90509250925092565b60008060408385031215613ec357600080fd5b613ecc83613af5565b915060208301356001600160401b03811115613ee757600080fd5b8301601f81018513613ef857600080fd5b613f0785823560208401613b52565b9150509250929050565b60008060408385031215613f2457600080fd5b613f2d83613af5565b9150613c5660208401613af5565b600060208083016020845280855180835260408601915060408160051b87010192506020870160005b82811015613f9257603f19888603018452613f80858351613a1c565b94509285019290850190600101613f64565b5092979650505050505050565b6020808252825182820181905260009190848201906040850190845b81811015613fdc57613fce83855161396a565b938501939250600101613fbb565b50909695505050505050565b600060208284031215613ffa57600080fd5b61372f82613af5565b6020808252825182820181905260009190848201906040850190845b81811015613fdc5783516001600160a01b03168352928401929184019160010161401f565b60005b8381101561405f578181015183820152602001614047565b50506000910152565b6020815260008251806020840152614087816040850160208701614044565b601f01601f19169190910160400192915050565b60008060008060008060c087890312156140b457600080fd5b6140bd87613af5565b95506140cb602088016138ff565b9450604087013593506140e060608801613c5f565b9250608087013591506140f560a08801613af5565b90509295509295509295565b6000806040838503121561411457600080fd5b613e5f836138ff565b6000806040838503121561413057600080fd5b82356001600160401b038082111561414757600080fd5b61415386838701613cd9565b9350602085013591508082111561416957600080fd5b50613f0785828601613d4f565b60008060006060848603121561418b57600080fd5b614194846138ff565b92506141a2602085016138ff565b9150604084013560038110613c2157600080fd5b600080602083850312156141c957600080fd5b82356001600160401b03808211156141e057600080fd5b818501915085601f8301126141f457600080fd5b81358181111561420357600080fd5b8660208260051b850101111561421857600080fd5b60209290920196919550909350505050565b60006020828403121561423c57600080fd5b81356001600160401b0381111561425257600080fd5b61425e84828501613cd9565b949350505050565b634e487b7160e01b600052601160045260246000fd5b6001600160601b0382811682821603908082111561429c5761429c614266565b5092915050565b634e487b7160e01b600052603260045260246000fd5b600181811c908216806142cd57607f821691505b602082108103611e7357634e487b7160e01b600052602260045260246000fd5b601f8211156121a5576000816000526020600020601f850160051c810160208610156143165750805b601f850160051c820191505b8181101561433557828155600101614322565b505050505050565b81516001600160401b0381111561435657614356613b0c565b61436a8161436484546142b9565b846142ed565b602080601f83116001811461439f57600084156143875750858301515b600019600386901b1c1916600185901b178555614335565b600085815260208120601f198616915b828110156143ce578886015182559484019460019091019084016143af565b50858210156143ec5787850151600019600388901b60f8161c191681555b5050505050600190811b01905550565b8082028115828204841417610ca657610ca6614266565b60008261443057634e487b7160e01b600052601260045260246000fd5b500490565b80820180821115610ca657610ca6614266565b6001600160601b0381811683821601908082111561429c5761429c614266565b600060ff821660ff810361447e5761447e614266565b60010192915050565b81810381811115610ca657610ca6614266565b6000602082840312156144ac57600080fd5b815161372f81613ba9565b6000602082840312156144c957600080fd5b5051919050565b6001600160a01b039384168152919092166020820152604081019190915260600190565b60006001820161450657614506614266565b5060010190565b60006001600160601b0380831681810361452957614529614266565b6001019392505050565b60006080828403121561454557600080fd5b604051608081016001600160401b03828210818311171561456857614568613b0c565b81604052845191508160070b821461457f57600080fd5b908252602084015190808216821461459657600080fd5b5060208201526040830151600381900b81146145b157600080fd5b60408201526060928301519281019290925250919050565b81835281816020850137506000828201602090810191909152601f909101601f19169091010190565b60208082528181018390526000906040600585901b8401810190840186845b8781101561468057868403603f190183528135368a9003601e1901811261463757600080fd5b890185810190356001600160401b0381111561465257600080fd5b80360382131561466157600080fd5b61466c8682846145c9565b955050509184019190840190600101614611565b5091979650505050505050565b634e487b7160e01b600052603160045260246000fd5b600082516146b5818460208701614044565b919091019291505056fe360894a13ba1a3210667c828492db98dca3e2076cc3735a920a3ca505d382bbca264697066735822122012159bd3f13174c36996a01c6e17f9c650760b42785a43766b10d7821a7ca9dd64736f6c63430008180033",
    "linkReferences": {}
  },
  "methodIdentifiers": {
    "UPGRADE_INTERFACE_VERSION()": "ad3cb1cc",
    "addCollateralTokens(address[],bytes32[])": "eb703464",
    "addLoanableToken(address,bytes32)": "88bd6585",
    "createLendingRequest(uint256,uint8,uint256,address)": "1308aedc",
    "depositCollateral(address,uint256)": "a5d5db0c",
    "getAccountCollateralValue(address)": "7d1a4450",
    "getAllCollateralToken()": "b202dc20",
    "getAllOfferForUser(address,uint96)": "58944730",
    "getAllRequest()": "545569ba",
    "getLoanableAssets()": "86f5483f",
    "getRequestById(uint96)": "02727e34",
    "getUsdValue(address,uint256)": "c660d112",
    "getUserEmail(address)": "9480e948",
    "getUserRequest(address,uint96)": "1143e606",
    "get_gitCoinPoint(address)": "f2cc0ba5",
    "gets_addressToCollateralDeposited(address,address)": "527ed126",
    "initialize(address,address[],bytes32[],address,address)": "15b19dc2",
    "isVerified(address)": "b9209e33",
    "makeLendingOffer(address,uint96,uint256,uint8,uint256,address)": "bf343943",
    "owner()": "8da5cb5b",
    "proxiableUUID()": "52d1902d",
    "removeCollateralTokens(address[])": "f9f22ec2",
    "renounceOwnership()": "715018a6",
    "repayLoan(uint96,uint256)": "c147a892",
    "respondToLendingOffer(uint96,uint96,uint8)": "ecb0fe38",
    "serviceRequest(address,uint8,address)": "41239496",
    "transferOwnership(address)": "f2fde38b",
    "updateEmail(address,string,bool)": "065a1f87",
    "updateGPScore(address,uint256)": "42e292c1",
    "updatePriceFeeds(bytes[])": "ef9e5e28",
    "upgradeToAndCall(address,bytes)": "4f1ef286",
    "withdrawCollateral(address,uint256)": "350c35e9"
  },
  "id": 52
}